:020000040000fa
:080000000002040000000000f2
:020000040000fa
:04000800a80200004a
:020000040000fa
:04000c00a802000046
:020000040000fa
:04001000a802000042
:020000040000fa
:04001400a80200003e
:020000040000fa
:04001800a80200003a
:020000040000fa
:04001c00a802000036
:020000040000fa
:04002000a802000032
:020000040000fa
:04002400a80200002e
:020000040000fa
:04002800a80200002a
:020000040000fa
:04002c00a802000026
:020000040000fa
:04003000a802000022
:020000040000fa
:040034003620000072
:020000040000fa
:04003800a80200001a
:020000040000fa
:04003c00a802000016
:020000040000fa
:04004000a802000012
:020000040000fa
:04004400a80200000e
:020000040000fa
:04004800a80200000a
:020000040000fa
:04004c00a802000006
:020000040000fa
:04005000a802000002
:020000040000fa
:04005400a8020000fe
:020000040000fa
:04005800a8020000fa
:020000040000fa
:04005c00a8020000f6
:020000040000fa
:04006000a8020000f2
:020000040000fa
:04006400a8020000ee
:020000040000fa
:04006800a8020000ea
:020000040000fa
:04006c00a8020000e6
:020000040000fa
:04007000a8020000e2
:020000040000fa
:04007400a8020000de
:020000040000fa
:04007800042200005e
:020000040000fa
:04007c00a8020000d6
:020000040000fa
:04008000a8020000d2
:020000040000fa
:04008400a8020000ce
:020000040000fa
:04008800a8020000ca
:020000040000fa
:04008c00a8020000c6
:020000040000fa
:04009000a8020000c2
:020000040000fa
:04009400a8020000be
:020000040000fa
:04009800a8020000ba
:020000040000fa
:04009c00a8020000b6
:020000040000fa
:0400a000a8020000b2
:020000040000fa
:0400a400a8020000ae
:020000040000fa
:0400a800a8020000aa
:020000040000fa
:0400ac00a8020000a6
:020000040000fa
:0400b000a8020000a2
:020000040000fa
:0400b400a80200009e
:020000040000fa
:0400b800a80200009a
:020000040000fa
:0400bc00a802000096
:020000040000fa
:0400c000a802000092
:020000040000fa
:0400c400a80200008e
:020000040000fa
:0400c800a80200008a
:020000040000fa
:0400cc00a802000086
:020000040000fa
:0400d000a802000082
:020000040000fa
:0400d400a80200007e
:020000040000fa
:0400d800a80200007a
:020000040000fa
:0400dc00a802000076
:020000040000fa
:0400e000a802000072
:020000040000fa
:0400e400a80200006e
:020000040000fa
:0400e800a80200006a
:020000040000fa
:0400ec00a802000066
:020000040000fa
:0400f000a802000062
:020000040000fa
:0400f400a80200005e
:020000040000fa
:0400f800a80200005a
:020000040000fa
:0400fc00a802000056
:020000040000fa
:04010000a802000051
:020000040000fa
:04010400a80200004d
:020000040000fa
:04010800a802000049
:020000040000fa
:04010c00a802000045
:020000040000fa
:04011000a802000041
:020000040000fa
:04011400a80200003d
:020000040000fa
:04011800a802000039
:020000040000fa
:04011c00a802000035
:020000040000fa
:04012000a802000031
:020000040000fa
:04012400a80200002d
:020000040000fa
:04012800a802000029
:020000040000fa
:04012c00a802000025
:020000040000fa
:04013000a802000021
:020000040000fa
:04013400a80200001d
:020000040000fa
:04013800a802000019
:020000040000fa
:04013c00a802000015
:020000040000fa
:04014000a802000011
:020000040000fa
:04014400a80200000d
:020000040000fa
:04014800a802000009
:020000040000fa
:04020800a802000048
:020000040000fa
:04020c00a802000044
:020000040000fa
:04021000a802000040
:020000040000fa
:04021400a80200003c
:020000040000fa
:04021800a802000038
:020000040000fa
:04021c00a802000034
:020000040000fa
:04022000a802000030
:020000040000fa
:04022400a80200002c
:020000040000fa
:04022800a802000028
:020000040000fa
:04022c00a802000024
:020000040000fa
:04023000a802000020
:020000040000fa
:04023400a80200001c
:020000040000fa
:04023800a802000018
:020000040000fa
:04023c00a802000014
:020000040000fa
:04024000a802000010
:020000040000fa
:04024400a80200000c
:020000040000fa
:04024800a802000008
:020000040000fa
:04024c00a802000004
:020000040000fa
:04025000a802000000
:020000040000fa
:04025400a8020000fc
:020000040000fa
:04025800a8020000f8
:020000040000fa
:04025c00a8020000f4
:020000040000fa
:04026000a8020000f0
:020000040000fa
:04026400a8020000ec
:020000040000fa
:04026800a8020000e8
:020000040000fa
:04026c00a8020000e4
:020000040000fa
:04027000a8020000e0
:020000040000fa
:04027400a8020000dc
:020000040000fa
:04027800a8020000d8
:020000040000fa
:04027c00a8020000d4
:020000040000fa
:04028000a8020000d0
:020000040000fa
:04028400a8020000cc
:020000040000fa
:04028800a8020000c8
:020000040000fa
:04028c00a8020000c4
:020000040000fa
:04029000a8020000c0
:020000040000fa
:04029400a8020000bc
:020000040000fa
:04029800a8020000b8
:020000040000fa
:04029c00a8020000b4
:020000040000fa
:0402a000a8020000b0
:020000040000fa
:0402a400a8020000ac
:020000040000fa
:0402a800a8020000a8
:020000040000fa
:0402ac00a8020000a4
:020000040000fa
:0402b000a8020000a0
:020000040000fa
:0402b400a80200009c
:020000040000fa
:0402b800a802000098
:020000040000fa
:0402bc00a802000094
:020000040000fa
:0402c000a802000090
:020000040000fa
:0402c400a80200008c
:020000040000fa
:0402c800a802000088
:020000040000fa
:0402cc00a802000084
:020000040000fa
:0402d000a802000080
:020000040000fa
:0402d400a80200007c
:020000040000fa
:0402d800a802000078
:020000040000fa
:0402dc00a802000074
:020000040000fa
:0402e000a802000070
:020000040000fa
:0402e400a80200006c
:020000040000fa
:0402e800a802000068
:020000040000fa
:0402ec00a802000064
:020000040000fa
:0402f000a802000060
:020000040000fa
:0402f400a80200005c
:020000040000fa
:0402f800a802000058
:020000040000fa
:0402fc00a802000054
:020000040000fa
:04030000a80200004f
:020000040000fa
:04030400a80200004b
:020000040000fa
:04030800a802000047
:020000040000fa
:04030c00a802000043
:020000040000fa
:04031000a80200003f
:020000040000fa
:04031400a80200003b
:020000040000fa
:04031800a802000037
:020000040000fa
:04031c00a802000033
:020000040000fa
:04032000a80200002f
:020000040000fa
:04032400a80200002b
:020000040000fa
:04032800a802000027
:020000040000fa
:04032c00a802000023
:020000040000fa
:04033000a80200001f
:020000040000fa
:04033400a80200001b
:020000040000fa
:04033800a802000017
:020000040000fa
:04033c00a802000013
:020000040000fa
:04034000a80200000f
:020000040000fa
:04034400a80200000b
:020000040000fa
:04034800a802000007
:020000040000fa
:100400006fa520000e7f22000e0188000000000072
:10041000000020000000e000020032000001200087
:10042000200288000c000700404722000100200045
:1004300011000700000020000000e0000200320070
:100440000000020000000000c21f020000000000c7
:100450000040da000000fe004440a900e004200053
:100460000000e0000300320000002000a00188002e
:100470004440a80000000600910188008000780038
:100480000000eb0015003700e280400032a0b4000d
:100490009101ba00e280400032a0b4009102ba009b
:1004a000e280400032a0b4000002eb00472bde00e7
:1004b000f507b200602ce10004003a000059eb009f
:1004c0008301e900fdff3e00040037006128e100e0
:1004d000010032000082eb000b00070011c3ba00dc
:1004e0001101ba000604e00003003a000200e00037
:1004f000e5ff3a0000000600f607b200960188000a
:1005000082007800f5ff37003159ba008301e90015
:100510000c0032002159ba008301e90008003200c2
:100520000400e00003003a00e280400032a0b40082
:10053000f5ff370011d9ba008301e900faff3a004c
:100540008100e800e180400032a0b4000000060015
:100550000040da000000fe000a00fa00e20f50003e
:1005600020003e00a0528000e10f50000600320043
:100570008023200045232000232320000423200083
:100580000000e00004003a00802220004522200004
:100590002322200004222000060028001403630008
:1005a00003003a000608780000002800140a7000d2
:1005b00013a8a30001003a0013a0a00002007800d5
:1005c000050037001388a300feff32003102fb0054
:1005d000840a78000000e9000000e000f9ff3a001a
:1005e0000800370033002000b3bf9f00c0bf9f004a
:1005f000d1bf9f00e2bf9f006a8057002b0a07000f
:100600006fb99700020078000080fa000000060031
:1006100003f0a200889fbe008a9fbe008c1f780056
:10062000f6000700fd0033006450e1004f00320087
:100630006420e1005200320003826c0007003b009e
:100640000905d0000306d000820f54000c065d009f
:1006500002003900020032008901780003067800a8
:100660008582550004003d000003fd008103fd006c
:100670008502ea008b854200840f720002003b0075
:1006800060001000e08018006011b8000005eb0069
:100690007a28e1000a00390006007800c75ddd0015
:1006a000f707b200878075002d0037008281710046
:1006b0000a017800610560008180d1000080d300cc
:1006c0008502e900f9ff3b000604400087844800ea
:1006d00002003b0060041400e0841c000988a300b1
:1006e000070032008a81710082817100610164001b
:1006f0008904d1000884d3008b05e8001700370077
:100700000978a30013003a000b00e0001300340046
:100710008b05e9000804440089844c000a447400f5
:100720000978a3000d003a000b00e0000700340038
:100730008b05e9000804440089844c0001003a005c
:100740000b0020000978a300f7ff32000001eb0046
:1007500002003700828171000a0178006c000700f6
:100760000cf0a70001f0a000b50037006420e10004
:1007700002003a00838f6c00b50033000801be0010
:100780000200be00ae003700889fbe008a9fbe00f8
:100790008c1f780099000700a000330003866c00ce
:1007a0006450e1002e0032006420e100330032008a
:1007b0006150e1002f0032006120e1003100320081
:1007c00085855500eb07b0000900200008042000d3
:1007d000050037000804440089844c000a003100f9
:1007e0000603430087834b000001530081815b00b7
:1007f000f8ff33000203be000800a0000804440014
:1008000089844c00f6ff3900c639dd00830173008e
:1008100001003200130020008904d1000884d300b5
:100820000998a300050032000800a7000300a000fb
:100830008904d1000884d3008b05e8008904d10025
:100840000884d3000001eb000281d20030000700d1
:1008500001f0a1000cf0a70001f0a0007800370023
:100860006420e1007a0032000801be000200be00f0
:10087000f7ff37006120e100750032006000b8002a
:10088000f3ff37000000200001f82700f0ff3700d9
:100890000001be00440007000470a70003f0a1009f
:1008a00003f8a30013003a006509b10010003200fc
:1008b000090035006928e100020035000100280028
:1008c0000000050000004000818048008502e9002a
:1008d000fcff3a0000000600f88f420005003500da
:1008e0008100d1000080d3008502e800fcff3a00bf
:1008f000000006008000eb00000005004f89de00cc
:1009000082017800270237006011b80035023700f5
:1009100081002000618055000b003d000b0020008d
:1009200061fe2f000100e1001d0034008281710092
:10093000610164008904d1000884d3000000e8004c
:10094000faff3a00710020006100640003007000ab
:10095000020060000900320061044400e0844c00a1
:100960000988a500050032008b05e8006808e10051
:1009700002003a008904d1000884d300f20f20005d
:100980000258e10005003d00c75ddd00f907b20037
:100990008980750008007800000006000bf8270029
:1009a0008b00780000000500c70ade00f107b200e6
:1009b000f50fb20008003200e1cf42000200320021
:1009c0000170a00024000500810f700001003200ba
:1009d0000408050044000500810f700002003a0081
:1009e000140005008502e9000000400081c04800b5
:1009f000fcff3b000170a000240005000004be00c5
:100a0000e9ff07000003be000405be000200be00af
:100a1000e5ff0700844f7500000006000200be00dd
:100a20006450e100050036006420e1000200360059
:100a30000968a30001003a000800be000160a000a0
:100a40004f0678004f05be004f04be0000000600b0
:100a5000f0ff2f00f1ff2700f9ff3700889fbe004d
:100a60008a9fbe008c1f7800e4ff0700ebff330075
:100a700003866c006450e100240032006420e10031
:100a8000270032006150e100220032006120e100c5
:100a9000210032008b854200eb07b1000134b80021
:100aa000003ab8000804420089844a00013ab800bc
:100ab0000030b8008880400009014a00040033007b
:100ac0000000400081804800020149008b05e900d8
:100ad000c909dd008301700001003200130020000d
:100ae000c814de004814dd004709de001200b20021
:100af000c808de000884700085ff070001f0a1002f
:100b00000cf0a70001f0a000cdff37006120e1004c
:100b1000cfff32000801be000200be00f7ff370021
:100b20006150e100fcff3a00c9ff37000c00fa00f9
:100b3000889fbe008a9fbe008c9fbe00afff07004b
:100b40000206be00840578000200be0002002000fc
:100b50004801070005003a008b02b3001200200094
:100b60004401070001003a00f8856d000c01be0049
:100b7000c60007000800be009b0032000b08a3005f
:100b80009e003a000df0a7000be0a00009f0a700be
:100b90000bf0a00009f0a1000801be00bb00070097
:100ba0000bf0a6009500320001003c000bd0a00025
:100bb0008acf7500b20033006000b8006250e100d7
:100bc00099003900a1003e000b28a300a2003a00c2
:100bd0000bf8a300060032000b58a300a700320058
:100be0000801be00a90007000800be009400320002
:100bf0000800be00b00007000004be000505780034
:100c00000bf0a7000b30a6000bf0a1005b079800cb
:100c1000324f200053f323003d01070005003d0043
:100c20000800be00120020009d0107000004be0065
:100c30000a05e9004a0798006150b9002fff070034
:100c4000008fbe000c01be0084ff070034010700c6
:100c5000300798000100e00002003d006000100035
:100c6000e0801800f2ff2700820f5000e08f58004c
:100c700064003e000c00be00290107002007980018
:100c8000f2072000820f5000e08f580005003c0062
:100c900012f82f00f3ff2f00820f5000838f5800af
:100ca00009003d000a00e0000300320001003c00a2
:100cb0000201ea00020578006000b80020079800f1
:100cc0003a079800190037003e0090006100b90013
:100cd0000aff0700809fbe000c00be004109dd0036
:100ce0004811de007208b100e20007000005be00f6
:100cf0001e01be0059ff07004f01be0044fe070061
:100d0000809fbe000c00be000a01be0040fe07002e
:100d10001e01be0051ff07004f01be003dfe07004f
:100d20008221270013f323004cff07000005be00bb
:100d30002e0090006100b900f0fe070001f0a20053
:100d40000c01be0033fe07000006be000800be0016
:100d5000750107000c01be0040ff07000a01be003c
:100d60002cfe0700809fbe004a0007002e05900061
:100d70000af0a7000a05ea00050037000800be00d7
:100d80000801be0035ff07000004be000c00be00d5
:100d90000801be000a00a70030ff07000006be00e1
:100da0000a05d100f5ff3a005e01900002e0a600be
:100db000030037000001be003600070072fe070086
:100dc0000004be004f00be00480007000801be003e
:100dd00022ff07003e01900031010700de05900070
:100de0000bf0a70001f0a2004f06be004f05be00a9
:100df0004f04be000080fa00000006002500070036
:100e0000f9ff3700270007006000b8000bd0a700eb
:100e10000bc0a0000be0a7000bc0a2000bc0a700f6
:100e200001f82700f0ff37000df8a30002003200a0
:100e30001e000700190007000bf8a300eaff3200ac
:100e40000b30a70001f0a200e7ff37000df8a30068
:100e5000f9ff3a00f7ff37000801be000b0007005a
:100e6000e6ff320001003c000df0a2006000b80077
:100e70000df0a70009000700dbff37000b0007009b
:100e8000f1ff2700f0ff2f00d7ff37000100070018
:100e90009f00370001f823000000050001f827003b
:100ea0000000050020022000010037001002200091
:100eb00060408800000006000003be00bafe070084
:100ec0006220e100020032000600be0005000500bd
:100ed000e507b100f107b20004f023008480700040
:100ee00007f0a70001f0a00024000500889fbe00c5
:100ef0008a9fbe008c9fbe000004be00aafe0700b1
:100f00000800be006420e10048003e0055003200a9
:100f100072212700132b24007f00070047003c00ac
:100f20000800be00c2ec2800e32c2c00780007006b
:100f3000470035000800be0001f0a10002002000bb
:100f40000338230072000700430035000800be008c
:100f5000b2a32a0083fb2300c0fe0700020020008a
:100f600003f0230001f0a70003f0a000a9fd070093
:100f70006b0007000005be0060fe070001f0a20044
:100f80000006be000200280013f32300b3fe070092
:100f90000801be009ffd0700809fbe000c00be0040
:100fa00032082800e3952b00acfe07004f01be007d
:100fb00098fd07000006be000001be00a7fe070066
:100fc000809fbe004241250083b82300a3fe070096
:100fd0000200200003e823008efd07000c01be0084
:100fe0009efe07000006be004f00be00f2f92b0077
:100ff000c3d4230099fe07000200200003f0230061
:1010000084fd07000c01be0081fd07000001be0049
:101010000c00be00dcfd07000200200003f02300ee
:101020007cfd0700610145009d0007004f06be00e2
:101030004f05be004f04be000000060001f8270067
:10104000000020002202200062408800f7ff3700e5
:101050006000b800fbff370001f82300000020000b
:10106000f2ff370009f8a300f0ff32006000b8007b
:10107000eeff3700889fbe008a9fbe000003be00bf
:1010800049fe070085057800828152000200200099
:101090006220e10004003a00f307b10004003500cb
:1010a0007718e100040035000600be001400370088
:1010b0006000b8000f003700f50f2000faff2f0086
:1010c0008502d1000a85d3008301e900fcff3b00c3
:1010d0008184620000046500890f7400f2ff320011
:1010e0008582ea000a85ea008184620000046500c6
:1010f00007fe070007f0a70001f0a0000081eb0049
:101100000200e0004f05be004f04be0000000600d4
:1011100014002000db003700f4ff2f00d900370057
:101120000001be0020fe07000470a70003f0a1002c
:101130006509b100160032000d0035006828e10095
:1011400006003500f0ff2f00f1ff27000300e0004c
:1011500013003b00010028000000050000004000d3
:10116000818048008502e900fcff3a000800370052
:10117000f88f420002003c008000eb0000000500f8
:101180008100d1000080d3008502e800fcff3a0016
:101190000300e00002003b0060001000e080180047
:1011a00000000600881f7800030478000300e000b8
:1011b00007003d0060001000e08018006001190089
:1011c000e081190002003b0001f02d000300370010
:1011d0000400070008f0a70001f0a0004f04780009
:1011e00000000600889fbe008a9fbe00008270003b
:1011f0000402710004827100260032000004be0067
:101200000200be006011b8006b09200095022000aa
:101210000182cf000a0039000541b1000082cf00f1
:10122000070039000541b1000982cf0004003900f0
:101230000541b1000882cf00010039000541b1002d
:1012400005425200120032000a003b008281710008
:10125000610164008100d1000080d3008984d30043
:101260000884d3008b05e8000442e800f7ff3a0049
:10127000070037000804440089844c00000048003f
:10128000818048008b05e9000442e900f9ff3a003b
:101290009ffd07004f05be004f04be000000060082
:1012a0000003be00c0fd07006220e1000200320022
:1012b0000600be000000060085024100e30f20008a
:1012c0000328e10005003c00a3fe2f000328e100f5
:1012d00007003d000500200001003700f50f200049
:1012e00020022000604088006000b800080037003d
:1012f000130020008381520005003d008100d100d1
:101300000080d3008301e800fcff3a0005002000c4
:10131000c72add00f107b2008580700007f0a70042
:1013200001f0a00000000600889fbe008a9fbe005a
:101330008c9fbe00e0fe0700850478000005be001b
:101340006420e10049003e006220e1000300320019
:10135000090035000bf8a300440032000bf8a3008d
:10136000080032001002200060408800f0ff2f00cb
:10137000f1ff27003d00370001f82f00000020009a
:101380003a0037003d000700a1fc07000006be0040
:101390000a00be00324f200053f323005eff070017
:1013a000060034000c00be003400070098fc070063
:1013b0000006be000a00be00020037008904e900f2
:1013c0000c00be002d000700a4fd07002b00070045
:1013d00090fc07000001be000c00be00eafc070004
:1013e0000005be000001be009cfd07000006be0017
:1013f000a2f32300430d2c0086fc0700809fbe0053
:101400000c00be00d2e32700d3f02b0093fd0700b1
:101410004f01be00dcfc07000006be000a01be0052
:101420008efd07000a01be007afc07000006be0020
:101430006148b90031fd07000005be0032082800f0
:10144000e3952b0085fd07000c01be0071fc070031
:101450000006be000a00be000200280013f32300ad
:101460007efd07000c01be006afc07004f06be00af
:101470004f05be004f04be000000060003f023002d
:1014800002000500889fbe008a9fbe00841f78006e
:101490005afd07004f00780011003300f0ff2f00c5
:1014a000838f6c0006003b00040565000a00a7005e
:1014b0000800370009f0a6001000200008003700df
:1014c000820f5400838f5c0003003900100020005d
:1014d00001003e000000200009f0a7000000ea0023
:1014e0004f05be004f04be000000e00000000600f3
:1014f000800078003104e000feff3a000080ea003e
:1015000000804000000006000000fa00e88157005b
:101510004fb99700020007000080fa0000000600a3
:101520000c00fa0000027800820278000000eb0054
:10153000e18f50000d0036008100e900f1bf9f00ef
:10154000b0bf9f00a4bf9f00c4bf9f00200c20001d
:10155000d0bf9f0003017800850078006c805700a1
:10156000cc000700afb897008048eb000080fa007d
:10157000000006000800fa00889fbe008a9fbe0097
:101580000084fb00d1c6b300814f50003400360008
:101590004b062000110009000b84d800810578005b
:1015a000720040004300dd00e98b20000080440011
:1015b0006022b8000600200007fe23005001be0094
:1015c0004000be00fe0707000002be000203be008e
:1015d00084bf9f0095bf9f00a6bf9f00b7bf9f001d
:1015e000aa002000110009008a85d8008005780033
:1015f000e9854500c35ddd008b8544003b02be00ec
:101600002b03be000fb897009fb897002fb9970023
:10161000bfb99700ea0707000002be000203be0040
:1016200084bf9f0095bf9f00a6bf9f00b7bf9f00cc
:10163000110009000a84d800010478004344dd0049
:10164000888444003902be002903be000fb8970009
:101650009fb897002fb99700bfb997001d003700ba
:10166000ea4f500013003600aa00200011000900c4
:101670000a84d80001057800690440004344dd0075
:10168000e98b2000088444006022b8000600200096
:1016900007fe23003800be002801be00c80707006f
:1016a0004355dd008a8444003902be002903be0090
:1016b000080037004344dd00e08b200008044000b0
:1016c0006022b8000600200007fe23003800be009c
:1016d0002801be00ba0707004f05be004f04be0038
:1016e0000080fa00000006000800fa00889fbe0093
:1016f0008a9fbe00d1c6b3000004e00023003d0075
:101700000040ea000004fb00814f50000a00340052
:1017100042062000110009000204d800a9002000a0
:10172000110009008900d800e9004000c308dd006d
:10173000ea8b200021003700ea4f500010003400ef
:10174000a2002000110009000204d8000101780065
:10175000690040004300dd00e18b20000080400074
:101760004311dd00828040003102be002103be0033
:101770005001be004000be0091070700380037004e
:101780004344dd00e08b2000320037000004fb0002
:10179000814f500023003400420620001100090050
:1017a0000204d800a9002000110009008900d80017
:1017b000e9004000c308dd00ea8020008100450008
:1017c0003102be002103be008b0920008a8545003e
:1017d0003b00be002b01be00790707000002be00df
:1017e0000203be0084bf9f0095bf9f00a6bf9f005d
:1017f000b7bf9f00110009000904d8000104780058
:101800004344dd00080545003a02be002a03be003d
:101810000fb897009fb897002fb99700bfb99700ee
:10182000d5ff3700ea4f500008003400a200200026
:10183000110009000204d80001017800690040008d
:101840004300dd00e1802000c4ff37004344dd0099
:10185000e0802000080440003800be002801be00df
:101860004f05be004f04be000080fa0000000600d5
:10187000d0019000028151004240a90003003400d1
:1018800010017800014978000208e80001007800a2
:10189000000006006f03b000889fbe008a9fbe0054
:1018a0008c9fbe008e1f780000067800c1a79f00a5
:1018b00092af9f006000b8006011b800d0a79f00f1
:1018c000e1a79f00f2a79f0083af9f008006eb0077
:1018d000e8043700cfa097008100e800c1a79f006f
:1018e00051c2b300814f500003003a00cfa19700ce
:1018f0008000eb0011003700bc0090000000fb00ee
:101900000168a300070032000d0178008000780014
:101910000c007800d6ff07000000e00005003a0048
:10192000d40437008c007800de040700e10f40008b
:10193000d00432008d06e800ce04370003007800a2
:1019400033417800d4c2b300844f51000c00320000
:1019500007003c006d425200844f51000a003200e3
:101960006b424200844f51000d003a0008003700de
:1019700004c3b300844f510009003a000600370049
:101980000130a000edff37000100a000ebff3700a1
:101990000110a000e9ff37000120a000e7ff370099
:1019a0000118a300010032000100a1000138a300ca
:1019b000010032000120a1008201fb000303b100fd
:1019c000e98f51000e003e00000178008001eb001d
:1019d000e3af9f006a1ab900b201fb000303b10034
:1019e00084814100020078001202fb000403b10070
:1019f000e90f5200f7ff3600e3af9f000a003700ff
:101a00000002eb00e4af9f00a3c2b300834f51007c
:101a100005003a009faa97004503780095af9f0004
:101a2000e6af9f000000e800e2c2b300904f110053
:101a300016003a0001e0a00064415100d04f1100af
:101a400003003200000178000002eb0009003700bb
:101a50001fa99700c201780092af9f00a3b79f0013
:101a60000000e800000178000c0037006a22b9008d
:101a70000482410002007800b201fb000303b100c0
:101a8000e98f5100f9ff36000200370001c0a000c5
:101a90000002eb00a4b79f00f2ff3700324078004d
:101aa000c2a79f00c3c6b300834f5000140032008a
:101ab00009003c0032c6b300824f50008000320063
:101ac00063414100824f5000130032000004e000e7
:101ad0006d0432009900370052c7b300824f5000a6
:101ae0009b00320063414100824f50000d003200e4
:101af00065415100824f500090003a000c003700c1
:101b0000000120000148a30001003200000028006d
:101b100081007000e1ff3700e07f9f0001a0a0007e
:101b20008d003700e07f9f000170a0008a00370021
:101b3000e07f9f001fab97004600780096af9f00a4
:101b4000000478000000e00001003a00e896200060
:101b5000080178000000eb00010037000000e800f9
:101b6000e24178000304e000fcff3a0080047800c2
:101b7000afb397000700e00003003200898f5300e5
:101b800001003100870478000007eb006fa997007f
:101b9000890f51000100360009075100e8806000fc
:101ba000b1b79f002a003a00110037003c009000b6
:101bb0000068a300070032000d0178000102200038
:101bc0000c0078002aff07000000e00006003a0041
:101bd000060037008c007800000220003104070066
:101be000e10f4000010032008d06e8000e07e90019
:101bf0000e00e000edff3a000087eb001400370014
:101c00003c0090000068a300090032000800780042
:101c1000b000fb00000478000d0178000c00780093
:101c200013ff07000000e00008003a00080037003a
:101c3000880078003100fb00010478008c007800f7
:101c400018040700e10f4000010032008d06e80093
:101c5000090078008004e9000000e000e8ff3a0095
:101c6000bfb197000300e00002043200110037000a
:101c70003c0090000068a300070032000d017800ce
:101c8000010220000c007800f9fe07000000e000cf
:101c900006003a00060037008c00780000022000a1
:101ca00000040700e10f4000010032008d06e8004b
:101cb0000e07e9000e00e000edff3a00ed033700eb
:101cc0001faa97004400780094af9f006102b900fa
:101cd000612bb900b4b79f00c5b79f00d6b79f006e
:101ce000e7b79f004822de004828dd0004027000ac
:101cf000e47f9f000148a300090032000404e000d3
:101d000007003200e14f420005003200f47f9f00df
:101d10006fe1970082c79f00290020000300370071
:101d2000efe19700f37f9f0019002000e4fb2f00f4
:101d30000f0242000404e8008dff3700e07f9f009f
:101d4000e8fb2f000f0444001900200088ff370033
:101d5000e07f9f00010cb300b1b79f00007020002e
:101d6000bfb29700008062003d02320005c8a300a8
:101d70000200320066002000a6b79f00bfb39700a4
:101d80000748a300090032001faa97004401be00c3
:101d90004400be0094af9f00a0af9f00b1af9f0072
:101da000c2af9f00d3af9f000a0037009faa9700e1
:101db0004500be0095af9f00690507000002be0008
:101dc0000203be00a4af9f00b5af9f00c6af9f0047
:101dd000d7af9f006022b8006033b8002fa89700eb
:101de000bfa897004fa99700dfa99700ae0407008e
:101df0000000e0000c003d002fa89700bfa897004e
:101e00004fa99700dfa9970003f0a200a0af9f00a1
:101e1000b1af9f00c2af9f00d3af9f00bfb097008c
:101e20003100b300b1b79f000000eb0090a79f0006
:101e30006022b8006033b8002fa89700bfa89700b1
:101e40004fa99700dfa99700fb0407000000e000fe
:101e50003400320024fc2f000f0242002fa897000c
:101e6000bfa897004fa99700dfa99700b705070003
:101e70001fa097000000e9006302b900a200200043
:101e8000110009000202d80090a79f000000e000a6
:101e900002003d000000e90090a79f001fa49700ea
:101ea0000840ea0010fe07002faa9700bfaa97007b
:101eb0004fab9700dfab9700c10507000002be00e3
:101ec0000203be00d4a79f00e5a79f00f6a79f00ce
:101ed00087af9f006022b8000600200007ff2300a4
:101ee000710407000000e00002003d000804e90062
:101ef0000b0037006022b8000600200047022400d3
:101f00005fa09700efa097007fa197008fa997008f
:101f10006a0407000000e000020035000804e80041
:101f200098a79f00afb29700f88f52000f003c00b7
:101f3000054078008ffd07000002be000203be00ce
:101f40002fa89700bfa897004fa99700dfa9970077
:101f5000d80307000002be000203be00a4af9f002a
:101f6000b5af9f00c6af9f00d7af9f001fa49700db
:101f7000e90f540015003c006022b8006033b8003f
:101f80002fa89700bfa897004fa99700dfa9970037
:101f9000a90407000000e000320032002fa89700db
:101fa000bfa897004fa99700dfa997000b0507006e
:101fb000e00f5000e08f5800e00f5900e08f59000b
:101fc00028003a00e10f54002600340004002000ed
:101fd00005002e00b6e02200170124005fa0970044
:101fe000efa097007fa197008fa997002e0407000c
:101ff0000000e00002003d007304540001003700bf
:102000007204540098a79f002fc09700b6fd0700e8
:102010000002be000203be00d4a79f00e5a79f00f8
:10202000f6a79f0087af9f002fa89700bfa8970033
:102030004fa99700dfa9970025040700e7040700d0
:102040000205be000004be006000b8006011b800c8
:10205000a0af9f00b1af9f00c2af9f00d3af9f0062
:10206000170037002fa89700bfa897004fa9970027
:10207000dfa99700d90407000205be000004be00d6
:10208000070507000002be000203be002fa897004c
:10209000bfa897004fa99700dfa99700bd050700cb
:1020a0000002be000203be00a4af9f00b5af9f00b8
:1020b000c6af9f00d7af9f000000eb0090a79f0026
:1020c000e598200014c0b300080037003500be00ba
:1020d0003501be000040e10001c8e10002d0e1008e
:1020e00003d8e100030039000442e800f44f520035
:1020f000f6ff3a00e47f9f001fa09700efaa970029
:10210000008052002fb39700060050000402fb002d
:10211000040750000600e000010032000e07e9004d
:10212000bfb3970063806300010032000e07e9002f
:102130003fb097000028a300390032006101600021
:102140000018a3000f0032003c0090000068a300bc
:1021500006003200b10220000200e000010032005f
:102160008180e8000d0178000d003700b0022000ea
:102170000200e000010032000080e8008c007800de
:102180000e0037000200e000220032003c00900008
:102190000068a300070032000d0178000102200052
:1021a0000c007800b2fd07000000e00006003a00d5
:1021b000180037008c00780000022000b9020700e8
:1021c000e10f4000130032008d06e80011003700d7
:1021d0003c0090000068a300070032000d01780069
:1021e000010320000c007800a1fd07000000e000c2
:1021f00006003a00060037008c007800000320003b
:10220000a8020700e10f4000010032008d06e8003f
:102210000e07e9000e00e000edff3c005f00370014
:10222000bfb097000138a30014003a001100370036
:102230003c0090000068a300070032000d01780008
:10224000010220000c00780089fd07000000e0007a
:1022500006003a00060037008c00780000022000db
:1022600090020700e10f4000010032008d06e800f7
:102270000e07e9000e00e000edff3c00bfb1970043
:10228000618161000318a3000e0032003c00900041
:102290000068a30005003200b10220000200e00047
:1022a000250032008180e80023003700b0022000c2
:1022b0000200e000010032000080e8008c0078009d
:1022c000320037000200e000340032003c00900091
:1022d0000068a300030032000d0178000102200015
:1022e000160037008c00780000022000270037001d
:1022f0003c0190008100fb00609820000268a30070
:1023000013003200c308dd00010040003002be00af
:102310002003be000800be000a01be00ce05070073
:10232000a4002000050020006033b800d10507009c
:1023300001032000808040000d0178000c0078002f
:102340004bfd07000000e00013003a0013003700c7
:10235000c308dd00010040003002be002003be00c3
:102360000800be000a01be00bb050700a400200053
:10237000050020006033b800be05070002032000fe
:10238000000141008c00780002007800450207003f
:10239000e10f4000010032008d06e8006f789700e1
:1023a0008040e900e17f9f000004e000d0ff3a0098
:1023b000130037003c0090000068a30007003200c3
:1023c0000d017800010320000c00780028fd0700b3
:1023d0000000e00006003a00060037008c0078009c
:1023e000000320002f020700e10f4000010032002f
:1023f0008d06e8001fa097000000e90090a79f004d
:102400001fa097000000e000eaff3c002fb29700f9
:10241000f20f52000300340020c1b300e07f9f00a0
:1024200002003700cfe29700e57f9f006f789700aa
:102430008000fb002fb3970081005300a1b79f00dd
:102440000004e000100032003c0090000068a3008f
:10245000070032000d017800e10220000c00780036
:1024600003fd07000000e00006003a000600370008
:102470008c007800e00220000a020700e10f400013
:10248000010032008d06e8006f78970096fc070087
:102490000002be000203be002fa89700bfa897004d
:1024a0004fa99700dfa9970045040700cb03070059
:1024b000330037003c019000619820000000fb00d1
:1024c0000268a300130032004300dd0000804000da
:1024d0003002be002003be000800be000a01be009c
:1024e0005d050700a4002000050020006033b8004f
:1024f000600507000003b0000d017800800078003f
:102500000c007800dafc07000000e00011003a003f
:10251000110037004300dd00008040003002be00a3
:102520002003be000800be000a01be004a050700e5
:10253000a4002000050020006033b8004d0507000e
:102540000003b0008c007800d6010700e10f4000c6
:10255000010032008d06e800ef7b97000700fb00ca
:102560004300dd0061982000008040003002be0082
:102570002003be000800be000a01be003d050700a2
:102580000205be000004be00ef7897000140e9009c
:10259000e07f9f000104e000c6ff3a00e8af9f0023
:1025a000f9af9f008ab79f009bb79f00afb4970019
:1025b000110037003c0090000068a30007003200c3
:1025c0000d017800010320000c007800a8fc070032
:1025d0000000e00006003a00060037008c0078009a
:1025e00000032000af010700e10f400001003200ae
:1025f0008d06e8008904e9000900e000edff3a00db
:10260000bfb097000138a3009a0132000e00e0002d
:10261000980134003c0090000068a30007003200dd
:102620000d017800010220000c00780090fc0700ea
:102630000000e00006003a00060037008c00780039
:102640000002200097010700e10f40000100320066
:102650008d06e8000e07e900eeff3a00850137001d
:102660003fb197000200e00005003d009fa99700e0
:102670004305be004304be0093af9f000d0037002a
:102680003fb297000448a300050032009faa9700bc
:102690004504be006055b80095af9f0005003700a7
:1026a0001fab97004604780096af9f008004eb00b4
:1026b0006055b800afb397000700e00009003a008a
:1026c00010002000a0b79f00e00f5400e08f5c00d6
:1026d000e00f5d00e08f5d00020032008000eb0043
:1026e000a1b79f003fb19700020cb200a2af9f00bc
:1026f00000082000800f510010003200000c200064
:10270000800f510021003a00e198200010c0b30072
:102710003102be003103be000440e10005c8e10003
:1027200006d0e10007d8e100170039000040e800ba
:10273000f44f5000f6ff3a001300370010c0b3000a
:1027400004012000050020006033b8000440e100cf
:1027500005c8e10006d0e10007d8e1000a00390011
:10276000430020000402d0008582d2000683d200fc
:102770008783d2008301e900faff3a000040e800b5
:10278000f04f5000f1ff3a00e07f9f006f7a970012
:102790000400fb00afb29700850f500002003d001f
:1027a000e57f9f00040037002fb39700800f530090
:1027b00001003d00a0b79f00efab97000700e000cd
:1027c00005003200bfb09700638060000200320055
:1027d0008703e900e7af9f003fb1970002e8a3003d
:1027e00009003200efa997002fb29700848f5100a3
:1027f0000300340084815100e3af9f0002003700e2
:102800008002eb00e5af9f006f7b97000600fb00a6
:102810000007eb00efab9700808f530001003400fe
:10282000008753003fb097000028a3003800320013
:10283000610160000018a3000f0032003c0090000e
:102840000068a30006003200b10220000200e00090
:10285000010032008180e8000d0178000d00370092
:10286000b00220000200e000010032000080e80019
:102870008c0078000e0037000200e00010003200eb
:102880003c0090000068a300070032000d017800b2
:10289000010220000c007800f5fb07000000e000ba
:1028a00006003a00060037008c0078000002200085
:1028b000fc000700e10f4000010032008d06e80037
:1028c0000e00e0004e0032003c0090000068a300c3
:1028d000070032000d017800010320000c00780091
:1028e000e3fb07000000e00006003a0006003700a6
:1028f0008c00780000032000ea000700e10f400090
:10290000010032008d06e8000e07e900ecff3700f9
:102910000e00e00015003200bfb097000138a300a0
:1029200012003a003c0090000068a300070032004b
:102930000d017800010220000c007800ccfb07009c
:102940000000e00006003a00060037008c00780026
:1029500000022000d3000700e10f40000100320018
:102960008d06e8000e07e900eeff3a00bfb19700c0
:10297000618161000318a3000f0032003c00900049
:102980000068a30006003200b10220000200e0004f
:10299000010032008180e8000d0178000d00370051
:1029a000b00220000200e000010032000080e800d8
:1029b0008c0078000e0037000200e00010003200aa
:1029c0003c0090000068a300070032000d01780071
:1029d000010220000c007800a5fb07000000e000c9
:1029e00006003a00060037008c0078000002200044
:1029f000ac000700e10f4000010032008d06e80046
:102a00002fb297008400e900c20add00b5a79f003d
:102a1000c308dd0060982000008040000e037800ad
:102a2000a6a79f0000077800e8af9f00f9af9f00be
:102a30008ab79f009bb79f0073003700afb0970025
:102a40008100e900a1b79f00000820002fa997008e
:102a5000800f510047003200000c2000800f510011
:102a600054003a00bfb197000300e00019003d0098
:102a70003e04be002e05be000802be000a03be00d2
:102a80006fa89700ffa897000fb197009fb197001c
:102a9000f1030700e07f9f000000fb00cf80de0015
:102aa0006109b9000802be000a03be005304070012
:102ab0006faa9700ffaa97000fb397009fb39700e4
:102ac0000002520081825a0002035b0083835b0094
:102ad00017003700bfb297000548a3001900320065
:102ae0006faa9700ffaa97003e04be002e05be0005
:102af0000801be000400be00f4b79f0085bf9f0020
:102b000026030700e07f9f000000fb00cf80de006f
:102b10000801be00310307007fb297008fba97000b
:102b20000000520081805a000002be006033b800ed
:102b3000e4af9f00f5af9f0086b79f0097b79f0057
:102b4000080037001e017800efaa97001100090065
:102b50008282d800a2002000110009000280d80063
:102b6000e17f9f006f7b97000643b000e67f9f00e8
:102b7000100037006fa89700ffa897000fb19700cb
:102b80009fb19700bfa397008703e90005003300ba
:102b90008301d1000281d3008180d3000080d30063
:102ba000f9ff37006f006000519720006140780006
:102bb000e07f9f00bc0090006f7997000200fb004f
:102bc0000168a300070032000d0178008000780042
:102bd0000c00780026fb07000000e00005003a002a
:102be000050037008c0078002e000700e10f400040
:102bf000010032008d06e800bfa19700e48151007a
:102c0000b3a79f00680757002fb297000400e000a9
:102c10008aff3a002fa79700bfb297000538a3009c
:102c2000140032000e00e000120034003c0090005e
:102c30000068a300070032000d01780001022000a7
:102c40000c0078000afb07000000e00006003a00d4
:102c5000060037008c0078000002200011000700f9
:102c6000e10f4000010032008d06e8000e07e90088
:102c7000eeff3a004fa3970016407800e07f9f00d8
:102c80000004e00013fb3a000d0078004f077800c5
:102c90004f06be004f05be004f04be006f03b100db
:102ca00000000600889fbe0001047800b800900074
:102cb0008084eb000118a3003a0032001801900054
:102cc0000198a30002003a000200e00035003a003b
:102cd0000190a0003104980080047800f90fb20040
:102ce0000200e00002003a0028009000000c78008a
:102cf000ea8f540005003a000178a30003003a006f
:102d000088007800d0002000e6ff0700180090003f
:102d1000d8009000810f50000b0032000000e80046
:102d2000100498001800780009487800000ce800aa
:102d300011c0b300c0a4200001487800ea8f5400fd
:102d400018003a0005003700880078000940780034
:102d50001700070080047800120037003800900048
:102d60000088a3000f00320018019000a800900016
:102d700048009000f8f5070098009000810f50007f
:102d800004003200380090000003b30030049800c3
:102d90008084eb000000eb001004980028009000f5
:102da000000c7800090078004f04be000000060007
:102db0000200fa00889fbe00a0ff9f000104780077
:102dc000380090000068a30033003a00e200600081
:102dd00005003a000003b300300498001104980085
:102de0000080eb002e003700d80490000900e000be
:102df00006003a0012002000e680570048009000cc
:102e0000d5f507001904980023003700a8009000aa
:102e10000100e00008003a00f1a42000210498001d
:102e2000010c780021002000510498001104980042
:102e30000030a0003004980018019000a800900015
:102e400048009000c4f50700280090008080eb0047
:102e500011049800aff8970001487800000ce800d2
:102e60002ff89700ea4f50000b003a00380090000e
:102e70000088a3000800320018019000a80090000c
:102e800048009000b4f507000000eb001004980023
:102e9000a8009000010c7800aff897000100fb003b
:102ea0004f04be000080fa000000060000c0da00f7
:102eb000000006002800fa00889fbe008a9fbe001e
:102ec0008c9fbe0007067800878669000c003b00d7
:102ed000030478008704780008f0a10009f0a1003d
:102ee000840f5000858f5800860f5900890f5c00b1
:102ef000030033000cf0a20001003a000cf0a10026
:102f0000fe0007006400e1005f0032007801470026
:102f10006408e100610032006c01470074855700cd
:102f20003200be001201be003a04be001a05be0007
:102f30001e039000be0a90008503530006003d006a
:102f40000004fd008104fd000205fd008305fd0075
:102f50008703ea00050378000df8a300040032009f
:102f600060041400e0841c0060051d00e0851d0065
:102f70006022b8007d0320000d38e1008006eb00e0
:102f80000b0039004433dd00f300b200830173000d
:102f900039003700848272000d027800e106640077
:102fa0008b85d1000a85d3008984d3000884d3009f
:102fb0008703e900f7ff3b000800400089804800d4
:102fc0000a0149008b81490004003b0060001000a9
:102fd000e080180060011900e08119000358a30087
:102fe000090032008d8272008482720061026000ea
:102ff0008301d1000281d3008180d3000080d300ff
:103000000603e8001b0037000348a30017003a003e
:103010000600e000170034000603e9000d00a300dd
:103020000000480081804800020149008381490076
:103030000348a3000f003a000600e0000900340036
:103040000603e900000040008180480002014900b9
:103050008381490001003a000003eb000348a3000c
:10306000f5ff32006022b80002003700848272004f
:10307000618266007500070003f0a1000cf0a70054
:1030800003f0a000b1003700640147006408e100cc
:1030900002003a000df8a300a9003a003200be0079
:1030a0001201be00a90037008f1fd100fc020700eb
:1030b0008f87e9000000e00000000600809feb0021
:1030c000f70207008f87e9000000e000000006001b
:1030d0002800fa00889fbe008a9fbe008c9fbe0019
:1030e00003866b00850007006400e10044003200a5
:1030f0006408e1004a0032006100e100460032004d
:103100006108e10049003200ec0647006000b800a9
:103110003d02be003d03be00f48657006011b800ba
:103120003d04be003d05be007d0320000b003700be
:103130000000a0008d06e9001300320004024200e6
:1031400085824a0006034b0087834b000000400045
:103150008180480002014900838149000802520031
:1031600089825a000a035b008b835b00f0ff3b00ff
:103170000802420089824a000a034b008b834b00fd
:103180008d06e900edff3a008482720086827200ab
:10319000f707b2008782720001003200150020009c
:1031a0001e0490003e0b900006035400e63fb00062
:1031b0000368a300070032000000a7000500a0007c
:1031c0008301d1000281d3008180d3000080d3002d
:1031d0000603e8008301d1000281d3008180d3007f
:1031e0000080d3000002eb000482d2001700070029
:1031f00003f0a1000cf0a70003f0a000530037007b
:10320000640247006408e1004d0032003400be0053
:103210003401be00f6ff37006108e10048003200cb
:103220006011b8006000b800f1ff370003ff27000d
:1032300002002000fbff3700801feb009802070010
:103240008f87e9000000e000000006001800200061
:1032500057002000080453000d003d000600200028
:1032600097fc2f000740e1001e00340084827200aa
:10327000610260008301d1000281d3008180d3000c
:103280000080d3000804e800f8ff3a00470020005f
:103290006104600005047400040464000d00320041
:1032a00061004000e080480060014900e081490081
:1032b00003b8a500070032000603e8006538e10006
:1032c00004003a008301d1000281d3008180d30041
:1032d0000080d300f87f20000830e10003003500b3
:1032e000080378006000b8006011b8004433dd00c6
:1032f000f300b20083017300000006006804470079
:103300000294be000094be00fc0447008694be00f8
:103310008494be0009007800aa0207000800780023
:10332000a802070099007800814f70000b003b0055
:103330000800be00830207004f00b1000300370001
:10334000f3ff2700f2ff2f006110b9004f06be0007
:103350004f05be004f04be000080fa0000000600ca
:103360008103780090f507000001be006000b800fe
:103370000478a30013003a006220e10015003e002b
:103380000d0039008301d1000281d3008180d30078
:103390008301d1000281d3008180d3008301d10059
:1033a0000281d3008180d3000538b000c42add003b
:1033b000f300b2008381720007f0a70003f0a000c1
:1033c00000000600f3ff2700f2ff2f006110b90094
:1033d000fbff370003ff2700f7ff37001400fa0058
:1033e000889fbe008a9fbe008c9fbe000004be0066
:1033f0000205be00680047000a90be000890be00ab
:10340000700207000070a7000bf0a1000bf8a300ea
:1034100020003a009e0990000e099000fe009000e6
:103420006e0090009e02900034432000848252007f
:10343000c6ff32000a003c00b4fc2f000428e10063
:10344000140034008301d1000281d3008180d300b5
:103450000080d3008502e800faff3a00bbff370086
:10346000b40020000428e10007003c0000004000f8
:103470008180480002014900838149008502e900fa
:10348000faff3a00b1ff37000300280002002000d5
:10349000010037006011b8006000b800abff3700d2
:1034a000889fbe00008270000402710004827100d7
:1034b0002400320036432000c50020008383cf0063
:1034c0000a0039000541b1008283cf0007003900ae
:1034d0000541b1008183cf00040039000541b100ee
:1034e0008083cf00010039000541b10085c353003e
:1034f0006022b800120032000a003b008482720091
:10350000610260008301d1000281d3008180d30079
:103510000080d3000603e8008743e800f7ff3a0085
:103520000700370000004000818048000201490088
:10353000838149000603e9008743e900f9ff3a0067
:1035400042ff07004f04be00000006001400fa000e
:10355000889fbe008a9fbe008c9fbe000406780034
:103560000004be000205be00680047000a90be00cd
:103570000890be00130207006200e1000800be00d0
:103580000a01be00040020000b003a001e02900059
:10359000e43fb1006e009000fe0090000e09900024
:1035a0009e099000f300b20005fe230085817100a2
:1035b0000bf0a70003f0a000040e780063ff3700b3
:1035c0002800fa00889fbe008a9fbe008c9fbe0024
:1035d00003866b0049ff07000028a30064003a003f
:1035e0000128a30067003a000008a30062003a0027
:1035f0000108a30065003a001e009000be0890007c
:1036000081064000ed3fb100f4805700ee019000cc
:10361000111ab8008e099000311bb8009e09900065
:10362000311cb800511db800f48557004600070052
:10363000fe0190003a0007008b85e8003e0007007d
:103640008e09900040000700ee0190003400070052
:103650008b85e800380007008e09900040000700c5
:103660009e0990001b18b800890440000a85480094
:10367000fe019000340007008b85e8003800070049
:10368000ee019000300007008e0990001b18b80072
:10369000890440000a8548000a98a30008003a00ff
:1036a0000402420085824a0006034b0087834b00d8
:1036b00008044c0089844c000a054d008d06e90081
:1036c00084827200850273004c3add00850272002c
:1036d0000100320015002000443ade001400b20060
:1036e0004538de00cb45dd000b007000c540de0034
:1036f000cb4ddd008b8070004549de00cb55dd00f1
:103700000b017100c551de000d037800cffe0700ec
:1037100003f0a1000cf0a70003f0a0000bff37009e
:103720001b18b8008502400006834800e0834b0068
:1037300060044c00070037001b18b8000603400067
:1037400087834800faff37001b18b8008703400042
:1037500008844800e0844c0060054d00000006002d
:103760001b18b8000804400089844800faff37009d
:103770000108a300f2fe3a005800be005801be0046
:10378000e3ff37000008a300edfe3a0009047800cb
:10379000f9ff370007f0a200c6fd37006022b8002d
:1037a000060220000000d0008180d2000482d200f6
:1037b0008582d2000000a0000202520083825a00db
:1037c000030031000202420083824a000000a1008f
:1037d0000603e900f3ff3a0000000600020ab90000
:1037e000001bb9000200b8008100420081004300c4
:1037f00000000600889fbe008a9fbe003004420081
:10380000b0844a0030054b0090854b006000b10049
:103810000898be000a90be000440e10005c8e1001f
:1038200006d0e10007d8e100020031006800400046
:103830001008e8004f05be004f04be00000006005f
:10384000889fbe008a9fbe003004be002005be00d7
:103850000418540005985c0006185d0007985d0088
:10386000110020000440e10005c8e10006d0e1009d
:1038700007d8e100010039008000eb00108810003b
:103880004f05be004f04be00000006001200fa0003
:10389000889fbe008a9fbe008c9fbe00e0b79f003d
:1038a000f1b79f0082bf9f0093bf9f000605be0037
:1038b0000404be000000eb00d0b79f00c0b79f001b
:1038c000b0b79f00a0b79f0090b79f000006eb0025
:1038d0005fb19700cfb09700820141003fb09700e1
:1038e0000200e00004003d00370007007e80570022
:1038f000c0ff070003003700330007007e80570039
:10390000cfff0700dfb697000d00e0000c00350088
:103910006fb29700ffb297000fbb97009fbb970055
:1039200010002000010020006011b80000027200a9
:103930008182720002037300838373001b000700ff
:103940000c06e80001042000810f5600e0ff3a0059
:103950000d00e00004003d000802be000a03be00a6
:103960007e805700a3ff07005fa897000000e000db
:1039700005003a001fb29700afb297003fb397001f
:10398000cfb39700090007006fb09700ffb0970012
:103990000fb997009fb997004f06be004f05be00b4
:1039a0004f04be000080fa0000000600010007007e
:1039b00000000600a4b79f00b5b79f00c6b79f00e0
:1039c000d7b79f00000006004f09de00828171001a
:1039d000b3b79f004f01de008180400082807000fd
:1039e000a1b79f008fb097004f09de000000400094
:1039f0000200700090b79f007fa897004f01de0083
:103a0000818040008280700081b79f000d00070018
:103a10004f3ade000000400004007000f0af9f004d
:103a2000080007000402420085824a0006034b009a
:103a300087834b00dfff07000802be000a03be00b9
:103a4000000006002fb29700bfb297004fb3970057
:103a5000dfb3970000000600881f780018002000e0
:103a6000881f780089ff07008f87e9004f047800de
:103a700000000600801feb0084ff07008f87e9002d
:103a800000000600889fbe008a9fbe00e00f500025
:103a9000e08f5800e00f5900e08f59000c003d0006
:103aa0006044b8006055b8000000540081805c009c
:103ab00002015d0083815d001800200015000700f1
:103ac00008003d00180007000004eb000500370067
:103ad0000004eb000f00070002003d001200070089
:103ae00018002000dcff07000800e000060032009c
:103af0006022b8006033b8000000520081805a0094
:103b000002015b0083815b004f05be004f04be00d5
:103b100000000600e00f5200e08f5a00e00f5b004b
:103b2000e08f5b00000006006044b8006055b800fc
:103b30000402540085825c0006035d0087835d00fb
:103b400000000600889fbe008a9fbe008c1f780080
:103b5000e00f5000e08f5800e00f5900e08f59004f
:103b60000d003d006044b8006055b80000005400ee
:103b700081805c0002015d0083815d001c002000eb
:103b80000820e10009a8e1000ab0e1000bb8e1005b
:103b90000d003d00080037000006eb00e00f52006a
:103ba000e08f5a00e00f5b00e08f5b0006003d00f5
:103bb0006044b8006055b8000402540085825c007f
:103bc00006035d0087835d00aaff07000c00e0008c
:103bd000060032006022b8006033b80000005200d6
:103be00081805a0002015b0083815b004f067800f0
:103bf0004f05be004f04be0000000600889fbe00b7
:103c00008a9fbe008c1f78000006eb00e00f50007a
:103c1000e08f5800e00f5900e08f590007003d0089
:103c20006044b8006055b8000000540081805c001a
:103c300002015d0083815d001c002000e00f520046
:103c4000e08f5a00e00f5b00e08f5b0007003d0053
:103c50006044b8006055b8000402540085825c00de
:103c600006035d0087835d000c00a2007c00070056
:103c70000c00e000060032006022b8006033b8009b
:103c80000000520081805a0002015b0083815b00ca
:103c90004f0678004f05be004f04be00000006002e
:103ca000889fbe008a9fbe008c9fbe000404be0099
:103cb0000605be00809fbe00829fbe002f00070049
:103cc000040678000800be000a01be002b000700b1
:103cd000840678004f03be004f02be008d4f760071
:103ce0007fb0970013003300f0ff2f008b8f6b0025
:103cf00006003b000d0666000c00a7000a00370016
:103d000007f0a600100020000a003700880f5200bc
:103d1000898f5a008a0f5b008b8f5b00030039008c
:103d20001000200001003e000000200007f0a70066
:103d30000000ea004f06be004f05be004f04be0063
:103d400000000600e48240001078a3000700320063
:103d5000640240001178a3003400be001401be00cc
:103d6000040032000330a700000006003500be004a
:103d70001501be000330a0000000060005ff27006b
:103d800005826100070032000428e10001003200d2
:103d9000240005000600070001003a004400050069
:103da0000408050002000700f9ff3a0014000500ae
:103db0006f826100810270008502710085027200cd
:103dc00000000600800078005002be005003be00d4
:103dd0004439de00f700b200f37f200003016100e8
:103de000090032000218e10016003a008501720055
:103df00083017300838173000008200015003a00de
:103e00004000200013003700850172008301730019
:103e10008381730005003a0004a8be0006a8be0016
:103e2000100020000b0037000201e90004024200ec
:103e300085824a0006034b0087834b000748a30096
:103e4000f9ff32000740a00004a8be0006a8be008b
:103e500020002000800098009200980000000600da
:103e6000889fbe008a9fbe008c9fbe000404b800dd
:103e70000506b8008904460060854e000606b800b5
:103e80000a054600e0854e000706b8008b0546008f
:103e9000040eb800890446000a854e00e0854d00f6
:103ea000050eb8000a0546008b854e00060eb800c8
:103eb0008b0546000416b8000a0546008b854e00a7
:103ec0000516b8008b054600041eb8008b05460099
:103ed0000800be000a01be004f06be004f05be002e
:083ee0004f04be0000000600c3
:020000040000fa
:103ee8006261000074200000646100007520000019
:103ef8006e680000616e0000200a000000000000eb
:103f08006e680000616e0000207800006f6e00008f
:103f1800672000000a000000205300002d65000003
:103f2800200a000000200000502d0000652000003d
:103f38000a0000000a00000020540000312d000093
:103f480030200000002000006572000020310000d1
:103f580020000000206500007220000032200000d0
:103f68000020000065720000204500005854000041
:0c3f780020000000256600000000000092
:020000040000fa
:103f84000000fa0000408000813e2000000178001b
:103f9400110009008280d80020408800b100200070
:103fa400a000200043010700d2030700c982a90032
:103fb400cd82a800c9a2a900cda2a900c9e2a90086
:103fc400cde2a800001c2e00410e2000850407004d
:103fd40061168000000022000080600000f0a7004d
:103fe4000000ea000000e9004f00de000040780015
:103ff4000080fb00610060004d00dd00621680005f
:10400400f1ff2d008100610001007000601688003e
:1040140061168000000021000080600000f0a7000d
:104024000000ea000000e9004f00de0000407800d4
:104034000080fb00610060004c00dd00621680001f
:10404400f1ff2e00810061000100700060168800fd
:1040540080c0b30014030700fc030700e0f9290043
:10406400fa030700d7ff370000a0fe003600f8006f
:10407400849fbe00869fbe003400f8000400200028
:10408400a40188000000fa00001180004f00de0047
:10409400004078008080fb00200480004300de00a4
:1040a400614060000080fb00008060000000e000d0
:1040b400cd00320006c8bf000080fb00cf80de00c8
:1040c4001203200003002000820f5000838f580049
:1040d400b5003e00006001003100370034003700b5
:1040e400400037004a003700af003700ae00370009
:1040f400ad003700ac003700ab003700aa00370032
:10410400a9003700a8003700a7003700a600370031
:10411400a5003700a4003700a3003700a200370031
:10412400a1003700a00037009f0037009e00370031
:104134009d0037009c0037009b0037009a00370031
:104144009900370098003700970037009600370031
:104154009500370094003700930037009200370031
:1041640091003700900037008f0037008e00370031
:104174008d0037008c0037008b0037002e0037008d
:10418400370037004000370049003700520037003d
:104194005b00370064003700710037007e00370091
:1041a4004303070000fa2900a80307008d00370025
:1041b40090168000700060000000e00005003200ee
:1041c40020c0b30006e8b70020408000db030700ee
:1041d4008400370070fa29009c03070034030700a9
:1041e4008000370090168000700060000000e0003e
:1041f40003003a0030c0b30006e8b7007900370086
:104204002b030700e0fa290090030700750037002c
:1042140090c2b30006e8b7009016800070006000fa
:104224000000e00062003a0011c0b30010c0b30007
:10423400cd0207006b003700a0c2b30006e8b70048
:1042440090168000700060000000e0005a003a0000
:1042540011c0b30020c0b300c302070061003700df
:10426400b0c2b30006e8b70090168000700060008a
:104274000000e00052003a0011c0b30030c0b300a7
:10428400b902070057003700c0c2b30006e8b70000
:1042940090168000700060000000e0004a003a00c0
:1042a40011c0b30040c0b300af0207004d00370097
:1042b400d0c2b30006e8b70090168000700060001a
:1042c4000000e00042003a0011c0b30050c0b30047
:1042d400a502070043003700e0c2b30006e8b700b8
:1042e40090168000700060000000e0003a003a0080
:1042f40011c0b30060c0b3009b020700390037004f
:10430400f0c2b30006e8b7009016800070006000a9
:104314000000e00032003a0011c0b30070c0b300e6
:10432400910207002f00370000c3b30006e8b7006e
:1043340090168000700060000000e00004003a0065
:1043440011c0b30080c0b300870207002500370006
:104354008040eb0080c0b3008302070021003700d7
:1043640010c3b30006e8b700901680007000600028
:104374000000e00004003a0011c0b30090c0b30094
:1043840079020700170037008040eb0090c0b300ab
:1043940075020700130037008d0307000668ef005d
:1043a4009680a8000f003700c10207000d003700f7
:1043b400000000000b003700000000000900370077
:1043c400000000000700370000000000050037006f
:1043d4000000000003003700000000000100370067
:1043e400000000008460a9000080fa003400f90095
:1043f4004f03be004f02be003600f9000080fe00ed
:10440400004006003600f800809fbe00829fbe0078
:10441400849fbe00869fbe003400f8000000200088
:10442400a00188000000fa004006200001002000de
:104434006c03070090168000700060000000e0002c
:1044440013003a009680a90006c8bf000004e000eb
:104454000c003a00204080008000eb0029f10700a6
:10446400a299290093f923007bf1070007f10700c3
:10447400000078003103070010c0b30006e8b7005d
:10448400030037008a02070050fb2900ef020700ef
:104494008680a9000080fa003400f9004f03be00b2
:1044a4004f02be004f01be004f00be003600f900af
:1044b400004006000400fa00000f7800110798007d
:1044c400113a8000f00b200000816000600420009d
:1044d4007105200023742000804978008149780008
:1044e400824978001e007800004078007f40600018
:1044f4000080fb007f0060002235800001fe2f0059
:104504008100610001007000203588001e009000c9
:104514008000eb009201200003002000820f500075
:10452400838f5800c3003e0000600100190037006b
:104534001e00370024003700290037002f00370001
:10454400340037003a0037003f0037004500370099
:104554004a00370050003700550037005b00370031
:1045640060003700660037006b00370071003700c9
:10457400760037007c003700810037008700370061
:104584008c00370092003700970037009d003700f9
:10459400a20037000136800000fe2f00008060007a
:1045a4003000b30000368800a200370001368000d6
:1045b400f00f2e00808060000030200001007000a9
:1045c400003688009b0037001136800000fe2f0063
:1045d400008060003000b30010368800950037007a
:1045e40011368000f00f2e00808060000030200023
:1045f40001007000103688008e00370021368000dc
:1046040000fe2f00008060003000b30020368800d8
:104614008800370021368000f00f2e008080600073
:10462400003020000100700020368800810037002f
:104634003136800000fe2f00008060003000b3009f
:10464400303688007b00370031368000f00f2e00b2
:104654008080600000302000010070003036880047
:10466400740037004136800000fe2f000080600097
:104674003000b300403688006e00370041368000b9
:10468400f00f2e00808060000030200001007000d8
:1046940040368800670037005136800000fe2f0046
:1046a400008060003000b30050368800610037009d
:1046b40051368000f00f2e00808060000030200012
:1046c40001007000503688005a00370061368000bf
:1046d40000fe2f00008060003000b30060368800c8
:1046e4005400370061368000f00f2e008080600097
:1046f4000030200001007000603688004d00370053
:104704007136800000fe2f00008060003000b3008e
:10471400703688004700370071368000f00f2e0095
:104724008080600000302000010070007036880036
:10473400400037008136800000fe2f0000806000ba
:104744003000b300803688003a003700813680009c
:10475400f00f2e0080806000003020000100700007
:1047640080368800330037009136800000fe2f0029
:10477400008060003000b300903688002d003700c0
:1047840091368000f00f2e00808060000030200001
:10479400010070009036880026003700a1368000a2
:1047a40000fe2f00008060003000b300a0368800b7
:1047b40020003700a1368000f00f2e0080806000ba
:1047c4000030200001007000a03688001900370076
:1047d400b136800000fe2f00008060003000b3007e
:1047e400b036880013003700b1368000f00f2e0079
:1047f400808060000030200001007000b036880026
:104804000c003700c136800000fe2f0000806000dd
:104814003000b300c036880006003700c13680007f
:10482400f00f2e0080806000003020000100700036
:10483400c0368800113a8000000420000101700095
:104844006004200071052000237420008049780052
:1048540081497800824978000080fa00000006004f
:104864000200fa00000f7800113a8000f00b2000db
:104874000081600060042000710520002374200082
:104884008049780081497800824978001e007800c8
:10489400004078007f4060000080fb007f006000e3
:1048a4004800dd0002348000f10f2e008100610019
:1048b4000100700000348800113a800000042000d8
:1048c40001017000600420007105200023742000a1
:1048d4008049780081497800824978000080fa0094
:0448e40000000600ca
:020000040000fa
:1048e8000008000004000000020000000a000a009e
:1048f80000000000040800000400000000000000a0
:10490800520a000002000000000000000808000031
:1049180004000000000000000c0800000200000075
:10492800000000006e090000b8000000020000004e
:10493800286e75006c6c2900003031003233340069
:1049480035363700383961006263640065660000f7
:10495800010000000000000000000a000000000044
:1049680000000000006400000000000000000000db
:10497800e80300000000000000001000270000000d
:104988000000000000a086000100000000000000f8
:1049980040420f00000000000000800096980000d0
:1049a800000000000000e100f50500000000000024
:1049b80000ca9a003b00000000000000e40b54000d
:1049c800020000000000e800764817000000000020
:1049d8000010a500d4e8000000000000a0724e00fe
:1049e80018090000000040007a10f3005a00000087
:1049f8000080c600a47e8d000300000000c16f0087
:104a0800f2862300000000008a5d780045630100fb
:104a180000006400a7b3b600e00d000000e88900bc
:104a28000423c7008a0000000e080000600100008f
:104a3800020000000000000000000000f03f00003d
:104a480000000000000024004000000000000000fa
:104a58000059400000000000000040008f400000a6
:104a6800000000000088c3004000000000000000b3
:104a78006af8400000000000008084002e41000019
:104a880000000000d0126300410000000000840014
:104a9800d7974100000000000065cd00cd4100001f
:104aa800000020005fa002004200000000801d00fe
:104ab800af1544000000000040593e0029460000a0
:104ac800000000000000f0007f000000000000006f
:104ad80000f07f000000000000000000f07f0000f0
:104ae800000000000000f0007f000000000000004f
:104af80000f07f000000000000000000f07f0000d0
:104b0800000000000000f0007f000000000000002e
:104b180000f07f000000000000000000f07f0000af
:104b2800000000000000f0003f00000000a0990015
:104b380099b93f000000000040e17a00843f00007e
:104b48000000e0004d6250003f00000000e0e2007d
:104b5800361a3f000000000080b5f800e43e00006f
:104b68000000a000f7c6b0003e00000000a0f20060
:104b7800d77a3e0000000000e08e7900453e000034
:104b88000000e0000b2e11003e00000000e0df00f6
:104b98007cdb3d000000000000a19c00c73b00003a
:104ba800000000004c48b40039000000000020005c
:104bb8006ca13700000000000000000000000000a9
:104bc80000000000000000000000000000000000dd
:104bd80000000000000000000000000000000000cd
:104be80000000000000000000000000000000000bd
:104bf80000000000000000000000000000000000ad
:104c0800000000000000000000000000260a00006c
:104c180026000000020000004d0a0000004d0a00b6
:104c280009000000000200004f0a0000004f0a00bf
:104c38000e0201000000000000000000000000005b
:104c48000602020000000000260a00004c0a0000cc
:104c58000600000000000000540a000002000000e6
:0c4c680002000000010000001029800084
:020000040000fa
:104c74000000fa0040012000f9fe0700d082a800dd
:104c8400700580000000a1000010a1000020a00019
:104c9400700588008220a8008680a9009680a8005c
:104ca4000080fa00000006000200fa00004f7800bd
:104cb40010c0b30009e8b7000668ef000a68ef0007
:104cc4000868ef000b68ef00e9ff070040f72900d0
:104cd400de000700030037000ac8bf009e4f5000e3
:104ce4000400320009c8bf00e14f5000faff32004f
:104cf400010037000000000009c8bf00e24f500067
:104d040002003a0030f829001500370009c8bf0036
:104d1400e34f500002003a0030f829001000370039
:104d24000968ef002a0107009680a90040f82900cd
:104d3400c600070020a52000ecf107008000eb006e
:104d4400f0ee0700db0007000ac8bf000080fb008c
:104d54008000eb00ebee0700d600070020a5200042
:104d64000080fa00000006000200fa00889fbe00de
:104d7400004f7800114798001e407800e84f50001b
:104d84001a003a001e4090000004e0004500320082
:104d940008c8bf000080fb00cf80de00d6ee07000d
:104da4000004be001e80fb000000e900cf80de008e
:104db400d1ee07000001be00000020000100240025
:104dc40059ef07000001be000800be0010ee070006
:104dd400aeee07000040780008e8b7000bc8bf003b
:104de4000004a2000be8b7002e0037001e40780034
:104df400e94f500015003a000bc8bf009e409000d8
:104e040080cf500002003200320007002500370036
:104e14000ac8bf000080fb00818020009140780018
:104e24000141780021a52000827078000ac8bf00e3
:104e34000040e8000ae8b70008c8bf006b0007009c
:104e44000868ef000b68ef001600370008c8bf00c1
:104e54000080fb00cf80de00a7ee07000004be0048
:104e64001e80fb000000e900cf80de00a2ee0700f8
:104e74000001be0000002000010024002aef07000a
:104e84000001be000800be00e1ed07007fee070050
:104e94000040780008e8b7000bc8bf000004a20077
:104ea4000be8b7004f04be000080fa0000000600c3
:104eb4000000fa00c60007009680a90020c0b300d5
:104ec40009e8b70000f92900600007000080fa0033
:104ed400000006000000fa00bd00070030c0b30067
:104ee40009e8b70070f92900580007000080fa00ab
:104ef400000006000200fa002002a9000011800050
:104f04000010a1000020a1000011880020a2a90027
:104f14002062a900000420004011880023a2a900f7
:104f240023e2a9009580a9009560a80010118000d3
:104f34000060a1000070a1001011880021e2a80007
:104f44002342a8000000eb00000f780002003700a5
:104f5400000000001e0fe800700621009e0078008b
:104f6400808f5000faff36000080fa00000006002f
:104f74000200fa003002a900801180000010a10094
:104f84000020a1008011880030a2a9003062a9008d
:104f940000042000c011880033a2a90033e2a90054
:104fa40097e0a90097c0a800901180000060a100bc
:104fb4000070a1009011880031e2a8003342a800db
:104fc4000000eb00000f7800020037000000000032
:104fd4001e0fe800700621009e007800808f5000ac
:104fe400faff36000080fa00000006000200fa0012
:104ff400004f780000000000111180000020200004
:10500400008060000000e000fbff3a001e80fb000f
:10501400201188000080fa00000006000200fa0057
:10502400004f780000000000911180000020200053
:10503400008060000000e000fbff3a001e80fb00df
:10504400a01188000080fa00000006000200fa00a7
:10505400000f7800040037001e007800104078002c
:105064001e0fe800e1ff07001e00780010407800e2
:105074000004e000f8ff3a000080fa000000060097
:105084000200fa00000f7800040037001e007800c8
:10509400104078001e0fe800e0ff07001e007800b3
:1050a400104078000004e000f8ff3a000080fa00a5
:1050b400000006000e00fa005007980061079800ef
:1050c4000e0178005e009000ee009000809fbe000c
:1050d400e0fb2900801f7800a10020000200780076
:1050e40008f10700e68757000e007800d7ff070095
:1050f4000080fa00000006000e00fa005007980035
:10510400610798000e0178005e009000ee009000a8
:10511400809fbe00e0fb2900801f7800a1002000d2
:1051240002007800f7f00700e68757000e007800c9
:10513400d3ff07000080fa00000006000400fa0014
:10514400100798001e0090008000eb00eded0700b2
:1051540002002000a34724008aed0700026829000a
:1051640083b924003cee0700020020000300240061
:1051740084ed0700020020000328240081ed0700cd
:10518400c2ed0700000f78000421ef000021ef00ba
:105194009e007800110888002005800000c0a0004f
:1051a40000d0a00000e0a100200588008460a900d0
:1051b4009460a800200880000040a1000050a000d6
:1051c4002008880005e1a8000080fa00000006001d
:1051d4000000fa008460a90005e1a9000080fa003b
:0451e40000000600c1
:020000040000fa
:1051e800f03fb1000180b10006003500ee03090070
:1051f80000000000403fb1000180b100fbff3d000e
:105208001000b000203fb000020035000080090007
:08521800000000000000060088
:020000040000fa
:04522000000000008a
:020000040000fa
:020000040001f9
:0457f800aefa000005
:020000040000fa
:020000040001f9
:0457fc003f3f00002b
:00000001FF
